{
  "contractName": "FarmInsurance",
  "abi": [
    {
      "constant": true,
      "inputs": [
        {
          "name": "",
          "type": "address"
        }
      ],
      "name": "insuranceTakers",
      "outputs": [
        {
          "name": "banned",
          "type": "bool"
        },
        {
          "name": "policyValid",
          "type": "bool"
        },
        {
          "name": "lastPayment",
          "type": "uint256"
        },
        {
          "name": "numService",
          "type": "uint256"
        }
      ],
      "payable": false,
      "stateMutability": "view",
      "type": "function"
    },
    {
      "constant": true,
      "inputs": [],
      "name": "paymentPeriod",
      "outputs": [
        {
          "name": "",
          "type": "uint256"
        }
      ],
      "payable": false,
      "stateMutability": "view",
      "type": "function"
    },
    {
      "constant": true,
      "inputs": [],
      "name": "damagePayment",
      "outputs": [
        {
          "name": "",
          "type": "uint256"
        }
      ],
      "payable": false,
      "stateMutability": "view",
      "type": "function"
    },
    {
      "constant": true,
      "inputs": [],
      "name": "premiumPerService",
      "outputs": [
        {
          "name": "",
          "type": "uint256"
        }
      ],
      "payable": false,
      "stateMutability": "view",
      "type": "function"
    },
    {
      "payable": true,
      "stateMutability": "payable",
      "type": "fallback"
    },
    {
      "constant": false,
      "inputs": [],
      "name": "underwrite",
      "outputs": [],
      "payable": true,
      "stateMutability": "payable",
      "type": "function"
    },
    {
      "constant": false,
      "inputs": [
        {
          "name": "insuranceTaker",
          "type": "address"
        }
      ],
      "name": "update",
      "outputs": [],
      "payable": false,
      "stateMutability": "nonpayable",
      "type": "function"
    },
    {
      "constant": true,
      "inputs": [
        {
          "name": "insuranceTaker",
          "type": "address"
        }
      ],
      "name": "isInsured",
      "outputs": [
        {
          "name": "insured",
          "type": "bool"
        }
      ],
      "payable": false,
      "stateMutability": "view",
      "type": "function"
    },
    {
      "constant": true,
      "inputs": [
        {
          "name": "insuranceTaker",
          "type": "address"
        }
      ],
      "name": "getPremium",
      "outputs": [
        {
          "name": "premium",
          "type": "uint256"
        }
      ],
      "payable": false,
      "stateMutability": "view",
      "type": "function"
    },
    {
      "constant": false,
      "inputs": [
        {
          "name": "insuranceTaker",
          "type": "address"
        }
      ],
      "name": "payPremiumFor",
      "outputs": [],
      "payable": true,
      "stateMutability": "payable",
      "type": "function"
    },
    {
      "constant": false,
      "inputs": [],
      "name": "claim",
      "outputs": [],
      "payable": false,
      "stateMutability": "nonpayable",
      "type": "function"
    }
  ],
  "bytecode": "0x608060405262278d0060015567016345785d8a0000600255670de0b6b3a764000060035534801561002f57600080fd5b506106dd8061003f6000396000f3006080604052600436106100a4576000357c0100000000000000000000000000000000000000000000000000000000900463ffffffff1680630614bb3d146100af57806310b0624a146101235780631c1b87721461014e5780633ed5634e1461019157806345369a8c146101bc5780634e71d92d146101f257806359eeba9514610209578063822f426a146102345780639ba29d6d1461028b578063b01a4d8b146102e6575b6100ad336102f0565b005b3480156100bb57600080fd5b506100f0600480360381019080803573ffffffffffffffffffffffffffffffffffffffff169060200190929190505050610372565b60405180851515151581526020018415151515815260200183815260200182815260200194505050505060405180910390f35b34801561012f57600080fd5b506101386103bc565b6040518082815260200191505060405180910390f35b34801561015a57600080fd5b5061018f600480360381019080803573ffffffffffffffffffffffffffffffffffffffff1690602001909291905050506103c2565b005b34801561019d57600080fd5b506101a661046d565b6040518082815260200191505060405180910390f35b6101f0600480360381019080803573ffffffffffffffffffffffffffffffffffffffff1690602001909291905050506102f0565b005b3480156101fe57600080fd5b50610207610473565b005b34801561021557600080fd5b5061021e610529565b6040518082815260200191505060405180910390f35b34801561024057600080fd5b50610275600480360381019080803573ffffffffffffffffffffffffffffffffffffffff16906020019092919050505061052f565b6040518082815260200191505060405180910390f35b34801561029757600080fd5b506102cc600480360381019080803573ffffffffffffffffffffffffffffffffffffffff169060200190929190505050610586565b604051808215151515815260200191505060405180910390f35b6102ee610612565b005b60008060008373ffffffffffffffffffffffffffffffffffffffff1673ffffffffffffffffffffffffffffffffffffffff168152602001908152602001600020905061033b8261052f565b3414151561034857600080fd5b610351826103c2565b61035a82610586565b151561036557600080fd5b4281600101819055505050565b60006020528060005260406000206000915090508060000160009054906101000a900460ff16908060000160019054906101000a900460ff16908060010154908060020154905084565b60015481565b60008060008373ffffffffffffffffffffffffffffffffffffffff1673ffffffffffffffffffffffffffffffffffffffff16815260200190815260200160002090508060000160019054906101000a900460ff168015610429575042600154826001015401105b156104695760008160000160016101000a81548160ff02191690831515021790555060018160000160006101000a81548160ff0219169083151502179055505b5050565b60035481565b600061047e33610586565b151561048957600080fd5b6000803373ffffffffffffffffffffffffffffffffffffffff1673ffffffffffffffffffffffffffffffffffffffff16815260200190815260200160002090503373ffffffffffffffffffffffffffffffffffffffff166108fc6003549081150290604051600060405180830381858888f19350505050158015610511573d6000803e3d6000fd5b50806002016000815480929190600101919050555050565b60025481565b6000806000808473ffffffffffffffffffffffffffffffffffffffff1673ffffffffffffffffffffffffffffffffffffffff1681526020019081526020016000209050600254600182600201540102915050919050565b6000806000808473ffffffffffffffffffffffffffffffffffffffff1673ffffffffffffffffffffffffffffffffffffffff16815260200190815260200160002090508060000160019054906101000a900460ff1680156105f657508060000160009054906101000a900460ff16155b801561060a57504260015482600101540110155b915050919050565b60008060003373ffffffffffffffffffffffffffffffffffffffff1673ffffffffffffffffffffffffffffffffffffffff16815260200190815260200160002090508060000160009054906101000a900460ff1615151561067257600080fd5b61067b3361052f565b3414151561068857600080fd5b42816001018190555060018160000160016101000a81548160ff021916908315150217905550505600a165627a7a7230582092eb765127920f0fa7b94caeac20049e24489a1fe0493d2a9dda3f0f58dcf9be0029",
  "source": "pragma solidity ^0.4.15;\n\nimport './Insurance.sol';\n\n\ncontract FarmInsurance is Insurance {\n\n    struct InsuranceTaker {\n        bool banned;\n        bool policyValid;\n        uint256 lastPayment;\n        uint256 numService;\n        \n    }\n    enum CoverageType {\n        Wind_damage,\n        fire,\n        flood,\n        Natural_earthquakes,\n        Theft\n    }\n\n    enum ItemsCovered\n    {\n        crop,\n        tractor,\n        pump\n\n    }\n \n\n    mapping(address => InsuranceTaker) public insuranceTakers;\n\n    uint256 public paymentPeriod = 30 days;\n\n    uint256 public premiumPerService = 0.1 ether;\n\n    uint256 public damagePayment = 1 ether;\n\n function underwrite() payable public {\n        InsuranceTaker storage customer = insuranceTakers[msg.sender];\n\n        // do not accept new customers that have been banned previously\n        require(!customer.banned);\n\n        // in order to underwrite the customer needs to pay the first premium upfront\n        require(msg.value == getPremium(msg.sender));\n\n        customer.lastPayment = now;\n        customer.policyValid = true;\n    }\n\n    function update(address insuranceTaker) public {\n        // if insurance taker did not pay within required interval they will loose their insurance\n        // and will be banned for future insurance policies\n\n        InsuranceTaker storage customer = insuranceTakers[insuranceTaker];\n\n        if (customer.policyValid && customer.lastPayment + paymentPeriod < now) {\n            customer.policyValid = false;\n            customer.banned = true;\n        }\n    }\n\n    // checks if an insurance taker is currently insured\n    function isInsured(address insuranceTaker) public constant returns (bool insured) {\n        InsuranceTaker storage customer = insuranceTakers[insuranceTaker];\n        return customer.policyValid && \n            !customer.banned &&\n            customer.lastPayment + paymentPeriod >= now;\n    }\n\n    // calculates the premium for an insurance taker\n    function getPremium(address insuranceTaker) constant public returns (uint256 premium) {\n        InsuranceTaker storage customer = insuranceTakers[insuranceTaker];\n        return (customer.numService + 1) * premiumPerService;\n    }\n\n    // allows premium to be paid by separate account\n    function payPremiumFor(address insuranceTaker) public payable {\n        InsuranceTaker storage customer = insuranceTakers[insuranceTaker];\n\n        // only accept correct amount\n        require(msg.value == getPremium(insuranceTaker));\n\n        // check if last payment is overdue, if so -> ban\n        update(insuranceTaker);\n\n        // only accept payment from valid insurance takers\n        require(isInsured(insuranceTaker));\n\n        customer.lastPayment = now;\n    }\n\n    function claim() public {\n        require(isInsured(msg.sender));\n        InsuranceTaker storage customer = insuranceTakers[msg.sender];\n        msg.sender.transfer(damagePayment);\n        customer.numService++;\n    } \n}\n",
  "sourcePath": "D:\\TestProject\\FarmInsurance\\contracts\\FarmInsurance.sol",
  "compiler": {
    "name": "solc",
    "version": "0.4.24+commit.e67f0147.Emscripten.clang"
  },
  "schemaVersion": "2.0.1",
  "updatedAt": "2018-11-27T06:37:06.258Z"
}